:020000000B28CB
:10000800CE00030E83128F000A08900012280C28D5
:10001800C82099009701980183018B288B138B1CAA
:100028001628172821280B1E1A281B282128FF30DC
:100038008500060800008B1083280B1C242825281F
:1000480083288B1D28282928832805308E000F3007
:100058008D00F1308C008C0B2F288D0B2F288E0BE8
:100068002F2883120608970017088C000730031002
:100078008C0CFF3E031D3B280C0801399100180326
:10008800031D4728482875281108031D4C284D28AA
:1000980075280618502851286028FF3085005230EE
:1000A8008E002B308D0000308C008C0B59288D0B66
:1000B80059288E0B59280000831286196428652850
:1000C8004D280B100608970017088C0007300310FE
:1000D8008C0CFF3E031D6B280C08013998000B108F
:1000E80083280608970017088C00073003108C0C2B
:1000F800FF3E031D7A280C08013998000B10831263
:1001080010088A000F0E8300CE0E4E0E09008316CB
:10011800011381138B100B160B108B158B17850190
:10012800FF308600FF30831285000608970083128F
:1001380086199F28A0289B28950196015230831282
:1001480094002B30930000309200920BA928930B57
:10015800A928940BA92800000130831285020130D8
:1001680095070318960A003096071608803ACF00BC
:1001780080304F02031DC22810301502031CC52809
:0A018800C628A2289B280B2801348A
:02400E00F33F7E
:00000001FF
